:020000040800F2
:10000000F8070020D5010008693E000849340008BF
:10001000653E0008150F0008CD58000800000000DC
:10002000000000000000000000000000A9570008C8
:10003000190F00080000000085560008AD570008A1
:10004000EF010008EF010008EF010008EF010008D0
:10005000EF010008EF010008EF010008EF010008C0
:10006000EF010008EF010008EF010008EF010008B0
:10007000EF010008EF010008EF010008EF010008A0
:10008000EF010008EF010008EF010008EF01000890
:10009000EF010008EF010008EF010008EF01000880
:1000A000EF010008EF010008EF010008EF01000870
:1000B000EF010008EF010008EF010008EF01000860
:1000C000EF010008EF010008EF010008EF01000850
:1000D000EF010008C1580008EF010008EF01000817
:1000E000EF010008EF010008EF01000800F002F83E
:1000F00000F061F814A696E8000CB244B344DA4567
:1001000001D100F058F8BAE80F000FA696E83000C9
:10011000A5EB040504EB0607AAEB0704A7F101070A
:100120004FEA15154FEA3414A4F10104AC4201D38F
:1001300000F041F813F0010F18BFFB1A43F0010360
:1001400000F001F8DBE7184720740000407400005D
:10015000103A24BF78C878C1FAD8520724BF30C8F3
:1001600030C144BF04680C60704700007047000055
:100170000023002400250026103A28BF78C1FBD8B0
:10018000520728BF30C148BF0B607047642900F098
:100190007F80752900F07C80002070471FB500F03B
:1001A00019FE04000020002105F090FF401C606053
:1001B0001FBD10B510BD00F0D1FD1146FFF7EEFFD9
:1001C00005F086FB00F0F8FD03B4FFF7F2FF03BC77
:1001D00000F004FE0948804709480047FEE7FEE7B3
:1001E000FEE7FEE7FEE7FEE7FEE7FEE7FEE7FEE7E7
:1001F00004480549054A064B70470000B1570008FE
:10020000ED000008F8010020F8070020F8030020A6
:10021000F80300200FB41CB5084B06AA7B446946BE
:100220000090059800F047FB04460020694600F066
:1002300055FB20461CBC5DF814FB0000BD06000009
:1002400070B5044685690068C10601D5302600E016
:100250002026C00707D070BDD4E901213046904761
:10026000206A401C20626D1EF6D570BD70B5044634
:1002700085690078C00707D170BDD4E9012120202D
:100280009047206A401C20626D1EF6D570BD0000AC
:100290002DE9F0410646002410687529314616A55F
:1002A00010D0AFF30080002802DA404213A507E027
:1002B00031688A0701D512A502E0490704D511A5C6
:1002C000012401E0AFF3008000210A2206F1240797
:1002D00009E0B0FBF2FCB0FBF2F302FB1C00303093
:1002E00078541846491C0028F3D123462A46304644
:1002F000BDE8F04100F081BA000000002D000000D0
:100300002B000000200000002DE9F05F8946044624
:100310004FF0000ADFF874B1FB44C0F820A020467B
:10032000E1688847002874D0252806D0D4E9012147
:100330009047206A401C2062F1E700265F46204675
:10034000E16888472028054607DB312D05D278195A
:1003500010F8200C08B10643F1E7B00701D526F0EC
:100360000406C4F81CA00027C4F818A02A2D09D040
:10037000284605F0A3FE38B304EB8708303DC8F8E3
:10038000185019E059F8041B204604EB87029161CC
:10039000E1688847012F054618D1E069002820DA76
:1003A00026F020061DE0D8F8180000EB800005EBD1
:1003B00040003038C8F818002046E16888470546F4
:1003C00005F07CFE0028EED1012F0AD02E2D08D199
:1003D0002046E16888477F1C0546022F46F020062C
:1003E000C4DBA069002803DA404246F00106A061A0
:1003F000F00701D026F010066C2D0BD0682D09D027
:100400004C2D39D06A2D35D0742D35D07A2D33D07E
:1004100016E038E0E1682F4620468847B842054696
:1004200009D16C2F26D04FF48060E1680643204646
:100430008847054604E06C2F1AD04FF480700643BD
:100440000DB3A5F14100192802D8203546F4006605
:100450004A462946204626604E46FFF797FE80B161
:1004600001280BD0F61D26F0070000F1080956E719
:100470004020E4E78020D8E70020D6E706F1040911
:100480004DE7284652E7206ABDE8F09FDC5D00009A
:100490000FB400B58DB010A9099000910B904FF0EA
:1004A000FF300A9000200C900648784406900648D9
:1004B00078446A4607900F9909A800F029FA0DB010
:1004C0005DF814FB830400009B0400002DE9FF5F2E
:1004D0001D464FF0FF3B91464FF000085F46D5E9BF
:1004E0000146A96901987F1C8847296A8246884786
:1004F0000028F6D1BAF1FF3F0CD0002E24F4C064DE
:1005000019DD600614D5BAF12B0F09D0BAF12D0F01
:100510000ED103E0584604B0BDE8F09F44F4806477
:10052000A96901987F1C8847761E8246002E02DD4D
:10053000BAF1300F03D0B9F1000F26D032E0A9692B
:10054000761E01987F1C44F400748847002E824672
:1005500005DDBAF1780F06D0BAF1580F03D0B9F122
:10056000000F10D01EE0B9F1000F02D0B9F1100F4A
:1005700018D1A969761E01987F1C24F4007488475D
:100580008246102002E0082000E00A20814609E0AF
:10059000A96908FB0908761E01987F1C44F40074C1
:1005A00088478246002E05DD4946504600F09BF9FB
:1005B0000028EDDAE96901988847A00502D46FF0B8
:1005C0000100A8E7E00725D1600613D5600502D534
:1005D000C8F1000000E0404629680A1D2A60096849
:1005E000220501D5087015E0220701D5088011E029
:1005F00008600FE02868011D29600068210502D508
:1006000080F8008006E0210702D5A0F8008001E014
:10061000C0F8008038467EE710B5431C02E010F8B1
:10062000011B71B18107FAD14FF0013202C88C1A57
:100630008C4314EAC211F9D0C01A0A0603D0C01EB6
:1006400010BDC01A10BD0A0401D0801E10BD0902E1
:10065000FCD0401E10BD032A40F2308010F0030C85
:1006600000F0158011F8013BBCF1020F624498BF05
:1006700011F801CB00F8013B38BF11F8013BA2F1A2
:10068000040298BF00F801CB38BF00F8013B11F01D
:10069000030300F06D81083AC0F0088051F8043B74
:1006A000083A51F804CBA0E80810F5E7121D5CBF2A
:1006B00051F8043B40F8043BAFF30080D20724BF5D
:1006C00011F8013B11F801CB48BF11F8012B24BFF1
:1006D00000F8013B00F801CB48BF00F8012B704740
:1006E0004FF000020429C0F0128010F0030C00F05B
:1006F0001B80CCF1040CBCF1020F18BF00F8012BD9
:10070000A8BF20F8022BA1EB0C0100F00DB85FEAA6
:10071000C17C24BF00F8012B00F8012B48BF00F872
:10072000012B70474FF0000200B5134694469646E1
:10073000203922BFA0E80C50A0E80C50B1F12001F4
:10074000BFF4F7AF090728BFA0E80C5048BF0CC0A2
:100750005DF804EB890028BF40F8042B08BF704700
:1007600048BF20F8022B11F0804F18BF00F8012B72
:10077000704700004FF0013C50F8042B51F8043B47
:100780009A4221D1A2EB0C03934313EACC1317D165
:1007900050F8042B51F8043B9A4215D1A2EB0C03FC
:1007A000934313EACC130BD150F8042B51F8043BBC
:1007B0009A4209D1A2EB0C03934313EACC13DBD08A
:1007C0004FF00000704700BFD01A01BAB1FA81F1B2
:1007D00001F0180122FA01F0CB40DBB2C0B2C01A1E
:1007E000C1F120012CFA01F3D11A914311EAC3118E
:1007F000E6D170477047704770472DE9F0470D46C6
:1008000099469246044600F124080168880604D5FA
:10081000E06921F01001216000E00120A84201DD23
:10082000471B00E00027A1697A1902EB0900081AAA
:10083000A0612078C00602D42046FFF701FD002603
:1008400008E0D4E901211AF806009047206A401C0C
:10085000761C20624E45F4DB2078C0060AD520467F
:10086000FFF7EEFC06E0D4E9012130209047206A32
:10087000401C2062381EA7F10107F4DC07E0D4E930
:10088000012118F805009047206A401C2062281EAC
:10089000A5F10105F3DC2046FFF7E8FC207800060F
:1008A00002D50220BDE8F0870120FBE701694A1C60
:1008B00002610878704700B58FB0CDE901310021A1
:1008C000059105497944CDE9031011466846FFF7C3
:1008D0001BFD0FB000BD0000E5FFFFFF0A6802F836
:1008E000010B0A6070473A2800D2303820F020020D
:1008F000412A01D3A2F13700884201D34FF0FF30E3
:100900007047000002681144137801601846704770
:10091000D16005497944516104497944116200214B
:100920001161114600F060B8EDFFFFFFB700000055
:10093000426842B1016811F8013B23B1521EC0E97F
:100940000012184670470121C160881E7047426836
:100950005AB1C368016843B983688B4205D0491E08
:10096000521CC0E90012002070474FF0FF30704762
:1009700010B5203AC0F00B80B1E81850A0E818502C
:10098000B1E81850A0E81850203ABFF4F5AF5FEA7C
:10099000027C24BFB1E81850A0E8185044BF18C921
:1009A00018C0BDE810405FEA827C24BF51F8043BC8
:1009B00040F8043B08BF7047D20728BF31F8023B1C
:1009C00048BF11F8012B28BF20F8023B48BF00F8B0
:1009D000012B704710B5044600F0E6F90068005D91
:1009E00000F0010010BD00002DE9F34F4FF0000AA8
:1009F0000C4656468DB001200C9001F10C000B9076
:100A000062690B9801219047051E2DD0252D2CD011
:100A1000216A8847C0B162690B9801219047216A19
:100A200088470028F7D16269411E0B98904700E083
:100A3000761CA1690D988847216A88470028F7D15C
:100A4000E1690D988847DBE7A1690D988847A842BE
:100A5000074601D1761CD3E7E1690D9888477F1CD2
:100A600002D1BAF1000F6FD06BE162690B980027D9
:100A70003D46394690472A2804D162690B980121E6
:100A800090470125DFF8D08262690B9801219047D9
:100A9000A0F130010A290AD24745E5DC07EB8701BE
:100AA00000EB4107303FDFD445F01005ECE7E906E5
:100AB00001D46FF000476C280AD04C2814D0682865
:100AC00015D06A280DD074281CD07A281AD01DE0C1
:100AD00062690B98012190476C2802D045F004050B
:100AE00014E045F002050DE045F020050AE06269DA
:100AF0000B9801219047682802D045F0080505E0D1
:100B000045F4006562690B9801219047C4E90157DB
:100B100065283DD019DC58287AD00CDC452837D020
:100B200004DC252826D041289ED131E046282FD04C
:100B3000472899D12CE05B2877D0612828D06328FA
:100B40007CD0642823D15AE0F6E06F2848D008DC36
:100B500066281DD067281BD0692821D06E2816D1A1
:100B600027E0702845D0732868D0752847D07828AA
:100B70000DD14DE0A1690D988847252805463FF421
:100B800069AFE1690D9888476D1C3FF46AAFD8E002
:100B90000D9923466A466FF00100AFF30080C5E06F
:100BA00045F0400023464FF000026060A80736D4AD
:100BB0003EE0E8077FF447AF2068011D2160006830
:100BC000290501D506701BE7290701D5068017E71F
:100BD000A90703D5F117C0E9006111E706600FE727
:100BE00045F0400023464FF008026060A80716D485
:100BF0001EE040F60E0125EA0100606016E045F0B7
:100C0000400023464FF00A026060A80707D40FE0B7
:100C100045F040006060A80708D5234610220D99D2
:100C20006FF00100AFF3008080E007E01022234660
:100C30000D996FF00100FFF749FC77E04FF00009D4
:100C400063284F46C8464B46CB4602D05B2806D0A9
:100C500038E0E80601D40120A060012732E0626993
:100C6000D4F80CB00B98012190475E2807D14FF0C3
:100C7000010949466269D4F80CB00B989047216984
:100C800039B900210A4603AB43F82120491C082941
:100C9000FADBD8B3216949B308F1010862690B98FE
:100CA000012190475D28F4D1B9F1000F09D000204F
:100CB00003A951F82020D24341F82020401C0828E5
:100CC000F7DB03AB2069002820794FEA40701ED083
:100CD0005B462246CDF80080CDE901970D990028AA
:100CE0006FF0010020DAAFF300801FE0C11703AA04
:100CF00000EBD1614B1121F01F0102EB8302411A7D
:100D000013680120884003431360C7E719E00D9979
:100D1000224600286FF00100009702DAAFF300804E
:100D200004E0AFF3008001E0AFF3008000280ADAAE
:100D3000401C06D10C9820B14FF0FF300FB0BDE839
:100D4000F08F5046FAE7E90701D10AF1010A06449B
:100D500000200C9054E60000CCCCCC0C754600F082
:100D600035F8AE4605006946534620F00700854633
:100D700018B020B5FFF73CFABDE820404FF0000660
:100D80004FF000074FF000084FF0000BAC46ACE806
:100D9000C009ACE8C009ACE8C009ACE8C00921F062
:100DA00007018D467047000010B500F013F8001DD4
:100DB00010BD00BF1953000010B50446AFF300800A
:100DC0002046BDE81040FFF7FFB90000004870471B
:100DD00020000020004870474000002001491820F2
:100DE000ABBEFEE72600020070470000B0B5044627
:100DF00000688168C90709D0816821F0010181601C
:100E000000F028FE21688968C90701D10020B0BD23
:100E1000054602E08068C007F8D000F01BFE411BC9
:100E200020680329F6D38168C907F3D0A06A40F08F
:100E30001000A062E06A40F00100E0620120B0BD55
:100E4000B0B582B004460020019021688A68D207BC
:100E50004BD1886840F00100886040F21800C2F26F
:100E6000000000684DF68361C4F21B31A0FB010154
:100E7000880C01900198A0B1019801380190019867
:100E800078B1019801380190019850B1019801386A
:100E90000190019828B1019801380190019800282B
:100EA000EAD100F0D7FD21688968C9071CD1054641
:100EB00003E000BF8068C00716D100F0CBFD411BE6
:100EC00020680329F6D38168C907F3D1A06A40F0EE
:100ED0001000A062E06A40F00100E062002084F8A7
:100EE0002400012002B0B0BD002002B0B0BD00005F
:100EF00010B50446FFF790FB40F2D001C2F20001AA
:100F0000303182B2084621466423BDE8104002F029
:100F1000CFB90000FEE700007047000070B582B056
:100F200004460020019094F82400012802D10220F8
:100F300002B070BD012084F824002046FFF756FF60
:100F40002046FFF77DFF28B1002184F8241002B06D
:100F500070BD00BF0646A06A41F20211884302300C
:100F6000A06240F21800C2F200000568022001F001
:100F700003F8B5FBF0F0400001900198A8B100BF64
:100F8000019801380190019878B1019801380190D9
:100F9000019850B1019801380190019828B1019849
:100FA0000138019001980028EAD12068816841F059
:100FB0000801816000F04EFD21688A6812070FD495
:100FC000886840F00400886000F044FD216889686A
:100FD000490715D401216FF00302304622E000BF1B
:100FE000054602E088680007EAD500F033FD401BA3
:100FF00021680B28F6D388680007F3D50EE000BF00
:10100000054602E080684007E4D500F023FD411B5F
:1010100020680B29F6D381684907F3D501201021F8
:101020006FF01202A36A1A401143A162002184F8F2
:10103000241002B070BD000070B581B00022009293
:1010400090F82420012A03D10221084601B070BD86
:101050004A680123062A02EB820E80F8243007D862
:10106000D0F800C06FF004030CF134060CE000BFB0
:10107000D0F800C00C2A87BF0CF12C066FF040039B
:101080000CF130066FF022030EEB03021F233468CD
:1010900003FA02F50B6824EA050503FA02F22A4373
:1010A0003260092B03EB43021AD9DCF80C601E3ABC
:1010B000072589689540AE43914023F001023143F2
:1010C000102ACCF80C1015D142F20041C4F20101F3
:1010D0008C4517D0816A41F02001816201210AE02C
:1010E000DCF81030072689689640B34391401943D5
:1010F000CCF810100021002280F82420084601B00E
:1011000070BD00BF89680902F4D4DCF80810102B08
:1011100041F40001CCF80810ECD140F21801C2F201
:10112000000109684DF68362C4F21B32A1FB021272
:10113000910C01EB81014900009100990029D9D05F
:1011400000990139009100990029D3D00099013903
:10115000009100990029CDD00099013900910099A2
:101160000029C7D0009901390091009900294FF05A
:101170000001E5D1BFE700000068C06C70470000C7
:10118000002804BF01207047B0B50446806A28B12A
:1011900021688868C0070CD115E000BF0020E0621C
:1011A00084F82400204600F097F821688868C0077A
:1011B00009D0886820F00100886000F04BFC2168AD
:1011C0008A68D20726D1A06AC0063AD4A06A41F242
:1011D000021290430230A062E069D4E9013240EA91
:1011E000030C531EB3FA83F35D091346B2F5807FF7
:1011F00018BF2B02207D257B01284CEA45002CD10D
:1012000035B3A56A45F02005A562E56A45F00105FC
:10121000E56222E0054602E08868C007D3D000F00E
:1012200019FC401B21680328F6D38868C007F3D057
:10123000A06A40F01000A062E06A40F00100E062A5
:10124000A06AA06A40F01000A0620120B0BD00BFFB
:10125000A56903EB4533A3F5C0534D68B2F5807F14
:1012600025F4694543EA05034B608B684FF2FD7531
:10127000CFF6E17503EA050343EA00038B6001D072
:10128000012A07D122690023CFF6F07303EB025243
:1012900001E000BF0022CB6A23F470031A43CA6244
:1012A000896840F6FE62CFF61F721140814207D175
:1012B0000020E062A16A012262F30101A162B0BDD7
:1012C000A06A40F0100020F00200A062E06A40F046
:1012D0000100E0620120B0BD80B586B0014640F655
:1012E0000000C4F20100096800F5E05291424FF09D
:1012F0000001CDE90411CDE9021101D006B080BD95
:1013000041F21801C4F202010A6842F400720A6054
:101310000A6802F400720192019A0A6842F004021B
:101320000A60096801F00401019101990621029106
:101330000321039102A900F077FA06B080BD0000F6
:101340002DE9F04182B000270D460446019700F0D8
:1013500081FB21688A68D20544D406464868C005E6
:1013600003D4C86A10F4700F46D040F21800C2F2DD
:101370000000076842F292480220C1F2492800F0BA
:10138000FBFD216844F624130A69B7FBF0F0C2F2B2
:1013900092431A4206D1CA6844F62413C0F292035B
:1013A0001A425BD00A6912EA080F07D1CA6842F2F2
:1013B0009243C0F249031A4200F0C0800A6949F220
:1013C0004923C0F224031A424FF0FC0254D1CF68E3
:1013D0001F4208BF5422019B02FB00F7BB4250D3BF
:1013E000C3E000BFA06A40F02000A06284F824702F
:1013F000012002B0BDE8F0810868800700F1B580E7
:10140000681C00F0A880FDB90868800770D50868DE
:10141000800700F1AA800868800769D508688007FE
:1014200000F1A3800868800762D50868800700F192
:101430009C80086880075BD508688007E4D594E045
:101440000868800700F1918000F004FB801B216890
:10145000A842F5D908688007F2D449E00A6912EA7F
:10146000080F4FF0290207D1CB6842F29247C0F231
:1014700049073B4208BF1422019B02FB00F7BB4215
:1014800073D2681C52D05DBB0198B84230D301982A
:10149000013001900198B84267D20198B84227D331
:1014A0000198013001900198B8425ED20198B8428B
:1014B0001ED30198013001900198B84255D201988D
:1014C000B84215D30198013001900198B842DBD39E
:1014D0004BE000BF0198013001900198B84235D22D
:1014E00000F0B8FA801BA842F4D90198B842F1D2B2
:1014F000A06A40F00400A062002084F824000320C9
:1015000002B0BDE8F08100BF019801300190019860
:10151000B8422AD20198013001900198B84224D2F1
:101520000198013001900198B8421ED20198013013
:1015300001900198B842E7D317E000BF5422019B05
:1015400002FB00F7BB429CD30FE000BF21680CE018
:101550000868800709D40868800706D408688007EF
:101560005CBF08685FEA8070F2D56FF01200086017
:10157000A06A40F40070A062886800F46020B0F5B2
:10158000602F01D1207B18B1002002B0BDE8F081AE
:10159000A06A20F48070A062A06AC004F4D4A06A9B
:1015A00040F00100A062002002B0BDE8F081000020
:1015B00010B5044690F82400012804BF022010BD95
:1015C000012084F824002046FFF73AFC20B10020D7
:1015D00084F82400012010BD42F2044C2068A16A66
:1015E000C4F2010C40F2013291430CF57F7201F517
:1015F00080719042A16229D0A16A21F48011A16278
:101600004168490504D5A16A012363F30D31A16244
:10161000A16A0023C9044FF0000144BFE16A21F030
:101620000601E1626FF0020184F8243001608168F4
:1016300001F46021B1F5602F1BD1904214D0816874
:1016400041F4A0018160002010BD00BFDCF8001053
:1016500011F4702FD0D0A16A41F48011A162DCF89E
:1016600000104905CFD4D3E7DCF8001011F4702F37
:10167000E5D0816841F480118160002010BD000038
:10168000B0B5044690F82400012804BF0220B0BD84
:101690000121206884F824108168C90709D0816875
:1016A00021F00101816000F0D5F921688968C9073E
:1016B0000ED1214651F8280F41F2011220EA020210
:1016C000002042F001020A60002184F82410B0BD1D
:1016D000054602E08068C007EBD000F0BBF9411B73
:1016E00020680329F6D38168C907F3D0A06A214690
:1016F00040F01000A06251F82C2F0120E1E700001B
:10170000014690F82100022816D10868D1E90FC3DC
:10171000026822F00E020260026822F001020260FA
:10172000012000FA03F2CCF8042081F82100002007
:10173000002281F8202070470420886301200022C5
:1017400081F820207047000090F82110022923D151
:10175000026840F2040C1168C4F2020C21F00E0180
:10176000116013682F21C4F202018A4223F00103A1
:10177000136015DD3023C4F202039A421CD04423C7
:10178000C4F202039A421BD05823C4F202039A42C5
:101790001CD14FF4803321E0042181630120704784
:1017A0000823C4F202039A420ED01C23C4F202039F
:1017B0009A420BD1102311E04FF480730EE000BF6A
:1017C0004FF480530AE000BF012307E00CF16801E9
:1017D0004FF080738A4208BF4FF480130121CCF888
:1017E000003080F82110416B0022002980F8202071
:1017F00004BF0020704780B58847002080BD0000EE
:10180000B0B5044600F026F9054640F21000C2F2D9
:1018100000000078611C18BF044400BF00F01AF9F2
:10182000401BA042FAD3B0BD2DE9F04F82B00E6844
:10183000002E00F0FD8041F20042C4F201020423B8
:1018400040F2004E904208BF03234FF6FF7CC4F2E3
:10185000010E009300240123C1F2100C4FF0000A86
:101860004FF000094BE000BF41F20002C4F2010258
:10187000009F904208BF022704F00C030F229A40F9
:101880002BEA020207FA03F34FEA9A051A4346F8D5
:1018900025204E6840F20C45F202DEF8082054BFC5
:1018A00022EA080242EA0802C4F20105CEF8082042
:1018B0002A68B30254BF22EA080242EA08022A60F8
:1018C000B303DEF8042054BF22EA080242EA080209
:1018D000F303CEF80420DEF800204FF0010354BFDC
:1018E00022EA080242EA0802CEF800200E680AF155
:1018F000010A36FA0AF204F1040400F0998003FAAE
:101900000AFB16EA0B08F1D04E68664512DC122E6F
:1019100056D8DFE806F0350B4D4955555555555508
:101920005555555555555545510000BFD1F80C90AA
:1019300046E000BF4FF6FF72C1F2210296420FDC73
:101940000022C1F2110296421AD00022C1F2120204
:10195000964215D00022C1F22102964210D02FE00B
:101960000022C1F2220296420AD00022C1F23102C4
:10197000964205D00022C1F23202964220D100BF29
:101980008A684AB1012A14BFC0F814B0C0F810B078
:101990004FF0080914E000BF4FF0040910E000BF49
:1019A000CA6802F104090BE04FF0000908E000BF2B
:1019B000CA6802F1080903E0CA6802F10C0900BF15
:1019C00002462646B8F5807F24BF0432203E1768C1
:1019D0000F25B54027EA050509FA06F635431560D7
:1019E000CA79D2067FF582AF41F21803C4F202032E
:1019F0001A68AEF57E7642F001021A601A6802F0AB
:101A000001020192019A2AF0030256F802B040F650
:101A10000002C4F20102904208D040F60042C4F233
:101A2000010290427FF420AF012725E7002723E73A
:101A300002B0BDE8F08F0000C26802EA01039143E2
:101A400041EA034101617047002A08BF09040161AE
:101A50007047000040F2F410C2F2000000687047C6
:101A6000002804BF01207047F0B581B0044690F80B
:101A70003D0028B9002084F83C00204600F090F991
:101A8000242084F83D002068016821F001010160F4
:101A9000016841F400410160016821F400410160E6
:101AA00000F046FC636848F2A16CC0F2010C40F6FD
:101AB0000011C0F23D0163453CBF48F28041C0F2D5
:101AC0001E01884202D2012001B0F0BD4DF68361B3
:101AD000C4F21B31A0FB01122168970CD1F804E07D
:101AE0004FF496762EF03F0545EA92454D607743D8
:101AF00048F638160D6AC0F24106A7FB067625F0B7
:101B00003F07634538BF960C721C3A430A62CA69A4
:101B100048F2A0664CF6FF77C0F20106B34222EA13
:101B200007020BD801385B00B0FBF3F001306FF314
:101B30001F30042898BF04201BE000BFA7680138AD
:101B400057B119277B43B0FBF3F001306FF31F301F
:101B500070B100F5804007E003EB4303B0FBF3F006
:101B600001306FF31F3018B100F5004001E000BFF5
:101B700001201043C8610868D4E9072320F0C000A1
:101B8000104318430860886848F2FF3204F10C07DC
:101B900090438CCF18431043A6698860C86820F032
:101BA000FF0038433043C860086840F00100086017
:101BB00000202021206484F83D10206384F83E003A
:101BC00001B0F0BD2DE9F04383B01E4617468946AB
:101BD0000446FFF73FFF94F83D10202924D1054625
:101BE000206800BF816989071AD5FFF733FF411BC1
:101BF00020681A29F6D381698907F3D500202021AE
:101C0000206384F83D1084F83E00216C41F02001EF
:101C1000216484F83C00022003B0BDE8F08300BFDB
:101C200094F83C10012903D1022003B0BDE8F083F1
:101C3000012184F83C100168C90703D1016841F013
:101C400001010160016840F2020821F400610160B5
:101C5000212184F83D10102184F83E1000212164D8
:101C600067626685618DC0F201082185A8F10211C5
:101C7000E162E16A0A9E11F5803F18BF01291DD17A
:101C8000016841F48071016020464FF0011100228B
:101C90003346009501F038FC50B120680068C0055B
:101CA00044BF4FF400702064012003B0BDE8F0830E
:101CB0002069B0F5804F07D1FE2015E00829DFD05C
:101CC000216B1229DCD0DFE7062000EAD910216859
:101CD000F030086108F10601204632462B4601F03B
:101CE000F9FC0028E0D1FF20216800EA0900086122
:101CF0002046414632462B4601F0ECFC0028D3D169
:101D00000020029020684169029180690290029847
:101D100006E000BF204631462A4601F097FB18BB7B
:101D2000208D68B3204631462A4601F03FFDD8B9E0
:101D3000606A2168024612F8013B0B616262628DA3
:101D4000013A6285228D531E23854F697F07E1D5B5
:101D50001B04DFD0437802300B616062608D013874
:101D60006085901E2085D5E7206C04289CD12068D2
:101D7000016841F400710160012003B0BDE8F08307
:101D80002068016841F400710160202084F83D0062
:101D9000002084F83E0084F83C0003B0BDE8F083E6
:101DA00010B586B0016845F20040C4F200008142DF
:101DB0004FF00001CDE90411CDE9021102D006B0C7
:101DC00010BD00BF41F21804C4F20204216800F5FE
:101DD000384041F008012160216801F008010191BB
:101DE0000199C0210291122103910321059102A9B9
:101DF000FFF71AFD606840F400106060606800F44E
:101E000000100190019806B010BD000040F21000D3
:101E100040F2F411C2F20000C2F2000100780A6838
:101E2000104408607047000080B542F20000C4F220
:101E30000200016841F010010160032000F08CF8FD
:101E40000F2000F005F800F027F8002080BD00000A
:101E500070B540F21006C2F2000640F21801327866
:101E6000C2F200014FF47A730968B3FBF2F2044640
:101E7000B1FBF2F1084600F013FE0F2C4FF0010504
:101E800008D838B94FF0FF3021460022002500F075
:101E900037F87460284670BD82B041F21800C4F271
:101EA00002000168022241F001010160016801F0B5
:101EB000010101910199416841F080514160406800
:101EC00000F08050009000980420C4F201000168E6
:101ED00062F31A61016002B070470000002848BF39
:101EE000704700F01F01012202FA01F11C2202EAF0
:101EF000D0004EF20012CEF2000281507047000076
:101F000010B54EF60C5CCEF2000CDCF80030C3F3DA
:101F1000022E8EF00704042C28BF0424BEF1030314
:101F20004FF0FF3E0EFA04F438BF0023A14399405E
:101F30000EFA03F39A43114300F00F0200F16043DD
:101F40000901043A03F564436244002848BF02F1E2
:101F50000C03197010BD00004EF60C51CEF20001BA
:101F60000A684FF6FF031A4060F30A2242F08060CD
:101F700040F0FD7008607047012821D002280DD084
:101F8000102808D141F20401C4F202010A6851F894
:101F9000040CC00134D40020704700BF80B500F0AD
:101FA000DBF941F20401C4F2020109680222C1F323
:101FB000813102EB4101B0FBF1F0BDE88040704798
:101FC00041F20400C4F20200C16940F202320A4048
:101FD000B2F5817F04BF4FF40040704701F44071B7
:101FE000B1F5407F18D0B1F5007F1CBF00207047CD
:101FF000006A49F64041800701EAE070704700BF7F
:10200000C2F3834015A3185CD2030DD440F600122E
:10201000C0F23D02504313E050F8040C4FF224414B
:10202000800301EAE07070470A6810A3C2F34042DF
:102030009A5C41F20023C0F27A03B3FBF2F2504300
:102040000968490248BF70474AF6AB214000CAF60A
:10205000AA21A0FB01014808704700BF0203040544
:10206000060708090A0B0C0D0E0F101001020000E4
:102070002DE9F04182B00446007841F21C06C00709
:10208000C4F202064AD030685FEAC00808D430685B
:1020900040F080503060306800F08050019001982E
:1020A00047F20007C4F200073868C00512D4386848
:1020B00040F480703860FFF7CDFC05463868C005F5
:1020C00008D4FFF7C7FC401B6428F7D9032002B0EF
:1020D000BDE8F081706810F4407012D0616801F4BE
:1020E000407188420DD0706840F24042C4F24222F2
:1020F000012320F4407113600023C0071360716056
:1021000026D17068616820F440700843B8F1000F70
:10211000706003D4306820F0805030602068810700
:1021200007D556F8181CA26821F44041114346F81F
:10213000181CC00607D556F8180CE16820F480007A
:10214000084346F8180C002002B0BDE8F08100BF3B
:10215000FFF780FC054641F2883700BF70688007B2
:10216000CFD4FFF777FC401BB8424FF00300F5D9FE
:10217000EAE70000002804BF012070472DE9F04382
:1021800081B042F20008C4F202080446D8F8000008
:102190000D4600F0070081420CD9D8F8000020F06D
:1021A00007002843C8F80000D8F8000000F0070036
:1021B000A8426CD1206841F204098107C4F20209E7
:1021C00017D5410705D5D9F8001041F4E061C9F8E9
:1021D0000010010705D5D9F8001041F46051C9F885
:1021E0000010D9F80010A26821F0F0011143C9F8DD
:1021F0000010C00742D1D8F8000000F00700854267
:102200000CD2D8F8000020F007002843C8F80000DE
:10221000D8F8000000F00700A84238D12068410734
:1022200007D5D9F80010E26821F4E0611143C9F83C
:102230000010000708D5D9F80000216920F460508B
:1022400040EAC100C9F80000D9F8002002F00C00F3
:10225000082841F20020C0F27A004DD146F22A331C
:10226000C2F38341C0F60003595CD20338D440F670
:102270000010C0F23D0048433EE000BF606859F8DE
:10228000041C022808D0012826D1890306D4012085
:1022900001B0BDE8F08300BF8901F8D5D9F800107E
:1022A00021F003010843C9F80000FFF7D3FB0646FD
:1022B00041F28837D9F80000616800F00C00B0EBFB
:1022C000810F98D0FFF7C6FB801BB842F2D90320DC
:1022D00001B0BDE8F08300BF8907D8D5DEE700BFB5
:1022E000D9F8002046F24823C2F34042C0F600036A
:1022F0009A5C4843B0FBF2F0D9F8001046F2302265
:10230000C1F30311C0F60002515C40F2180220FA3A
:1023100001F140F21400C2F200000068C2F20002B3
:102320001160FFF795FD002001B0BDE8F0830000CB
:1023300040F2180041F20401C2F20000C4F20201AE
:102340000068096846F24022C1F30221C0F600028B
:10235000515CC8407047000040F2180041F204018F
:10236000C2F20000C4F202010068096846F240228D
:10237000C1F3C221C0F60002515CC84070470000A2
:10238000002804BF012070472DE9F04182B00446C7
:10239000007841F20006C007C4F202060CD0706853
:1023A00000F00C00042840F081803068800303D5E1
:1023B0006068002800F04681207880071BD570688F
:1023C00010F00C0F09D0706800F00C00082840F0E5
:1023D00087807068C00300F183803068800703D570
:1023E0002069012840F02E813068616920F0F800F2
:1023F00040EAC10030602078000713D420784007FD
:102400002CD4E569002D00F01881706800F00C00F4
:10241000082840F0A780012D40F00481012002B07F
:10242000BDE8F081A069002800F084800020C4F29B
:1024300042200121C0F88014FFF70CFB054600BFC5
:10244000706A800700F1B280FFF704FB401B02288E
:10245000F6D9032002B0BDE8F08100BFF0695FEA61
:10246000C00808D4F06940F08050F061F06900F0D5
:1024700080500090009847F20007C4F200073868C7
:10248000C00549D4386840F480703860FFF7E2FA3C
:10249000054600BF3868C0053ED4FFF7DBFA401B95
:1024A0006428F7D9032002B0BDE8F081706800F01D
:1024B0000C00082803D17068C0033FF576AF61684F
:1024C0003068002900F00C81B1F5A02F00F00081E8
:1024D000B1F5803F40F01A8140F480301CE100BF2C
:1024E0002069002840F20000C4F2422000F08880F9
:1024F00001210160FFF7AEFA054600BF3068800792
:102500003FF572AFFFF7A6FA401B0228F6D9032069
:1025100002B0BDE8F08100BFE168306A002900F038
:102520009D80052900F09280012940F0AF8040F0A5
:102530000100B1E00020C4F242200021C0F8801464
:10254000FFF788FA054600BF706A80077FF556AF2F
:10255000FFF780FA401B0228F6D9032002B0BDE83D
:10256000F08100BF0027C4F2422700203866FFF741
:1025700071FA022D05460DD13068800140F1DE80F0
:10258000FFF768FA401B02284FF00300F4D902B0AD
:10259000BDE8F081306880014FD5FFF75BFA401B42
:1025A00002284FF00300F5D9F1E700BF40F2180010
:1025B000C2F20000006844F6D351C1F26201A0FBF0
:1025C0000101480A019000BF00BF0198411E002888
:1025D00001913FF413AF00BF0198411E0028019103
:1025E0003FF40CAF00BF0198411E002801913FF459
:1025F00005AF00BF0198411E00280191E4D1FDE61E
:1026000000210160FFF726FA054600BF3068800709
:102610007FF5F1AEFFF71EFA401B02284FF00300D2
:10262000F4D9B4E77068216A00F480328A4209D193
:10263000616A00F47010884204D1002002B0BDE845
:10264000F08100BF012002B0BDE8F08140F004003D
:102650003062306A40F001001EE000BF20F001004F
:102660003062306A20F004003062FFF7F3F905466B
:1026700041F28837306A800720D5FFF7EBF9401B1D
:10268000B8424FF00300F5D981E700BF20F0010008
:102690003062306A20F004003062FFF7DBF9054653
:1026A00041F28837306A800708D4FFF7D3F9401B1E
:1026B000B842F7D9032002B0BDE8F081B8F1000FAD
:1026C0003FF59FAEF06920F08050F06199E600BFC1
:1026D00040F480203060306840F480301CE000BF5F
:1026E00020F480303060306820F480203060FFF7C4
:1026F000B1F90546306880037FF55EAEFFF7AAF9B1
:10270000401B64284FF00300F4D940E720F48030E8
:102710003060306820F480203060FFF79BF9054678
:10272000306880033FF548AEFFF794F9401B6428FA
:10273000F6D9032002B0BDE8F08100BF206AB0F5F1
:10274000803F05D17168A26821F4003111437160A6
:102750007168626A21F474111143084370600120AA
:102760003866FFF777F90446306880013FF565AFBA
:10277000FFF770F9001B02284FF00300F4D906E7B9
:1027800070B528B1416A29B100210161142106E028
:10279000012070BD4168B1F5827F02D01C2100226A
:1027A00042500026866290F8511029B980F8506096
:1027B000054600F039F82846022180F8511090E8CB
:1027C0002E0002F482720C6803F4044324F04004E7
:1027D0000C601A4405F4006305691A4405F002030D
:1027E00045691A4405F001038569C4691A4405F472
:1027F00000731A4404F03803046A1A4404F0800396
:10280000846A1A4304F400531A430A60042202EA59
:1028100015424A60CA6922F40062CA610121466514
:1028200080F85110304670BD70B586B040F6000497
:10283000C4F20104006804F5205100268842059680
:10284000CDE90366029601D006B070BD41F21800D2
:10285000C4F20200016802AD41F4805101600168D8
:1028600001F4805101910199016841F00401016076
:102870000068294600F0040001900198A020029011
:1028800002200390032005902046FEF7CDFF402054
:10289000CDE90206204629460496FEF7C5FF06B09C
:1028A00070BD00002DE9F04182B01D4616460F466E
:1028B0000446FFF7CFF894F8511001290ED1804655
:1028C000002F4FF0010018BF002E03D102B0BDE869
:1028D000F08100BF94F85000012803D1022002B01B
:1028E000BDE8F081012084F850000320002184F825
:1028F000510061652763A686E686A163A187E1870B
:10290000A0682164B0F5004F2068616407D10168B8
:1029100021F040010160016841F4804101600168DB
:10292000490603D4016841F0400101606168731EEB
:10293000E268B1FA81F1B3FA83F349095B09B2F5B0
:10294000006F41EA030139D131B137F8021BC16090
:102950002763E08E0138E086E08E002870D0681C86
:102960000BD11AE0216B31F8022BC2602163E08E9B
:102970000138E086E08E002862D0206881688907EF
:10298000F0D4FFF767F8A0EB0800A842F2D338E0D4
:10299000FFF760F8E08E002852D020688168890730
:1029A000F6D5216B31F8022BC2602163E08E01382D
:1029B000E086E08E0028F0D142E000BF39B13978DE
:1029C0000173206B01302063E08E0138E086E08ED9
:1029D000B0B3681C0BD123E0216B09780173206B25
:1029E00001302063E08E0138E086E08E40B320683D
:1029F00081688907F0D4FFF72DF8A0EB0800A84202
:102A0000F3D3012084F85100002084F85000032003
:102A100002B0BDE8F08100BFFFF71CF8E08E78B18E
:102A2000206881688907F7D5216B09780173206BCD
:102A300001302063E08E0138E086E08E0028EFD17F
:102A40002046022101222B46CDF8008002F01CFE18
:102A500040B92046802100222B46CDF8008002F0AC
:102A600013FE28B1606D40F0200060652020606595
:102A7000A06838B9002001902068C1680191806881
:102A800001900198012084F85100002084F8500042
:102A9000606D002818BF012002B0BDE8F081000081
:102AA000411E0020B0EB116F1CBF012070474EF299
:102AB0001002CEF2000251604EF62351CEF2000118
:102AC000F0230B7007219060116070477047000081
:102AD00070470000B0B582B001680A68CC684B69E5
:102AE00002F02F05202D04F0200505D125B102B0FC
:102AF000BDE8B04002F064BE5FEA027C1EBF03F096
:102B0000010E04F4907313EB0E0341D1036BD50651
:102B100018D5012B16D114F0100313D00022019206
:102B20000A6801924A680192019A496949064BD4A0
:102B3000818DC28DC38D002B18BF914240F0F4816E
:102B400002B0B0BD13062DD514F080032AD090F842
:102B50004120212AF4D18268B2F5805F03D1026955
:102B6000002A00F06782026A531C036212784A60EE
:102B7000C28C013A1304C284E2D1C86820F08000FC
:102B8000C860C86840F04000C86002B0B0BD00BF77
:102B9000D30718BF14F4807340F0D080530700F1BE
:102BA000D380D8E05206CBD514F04002C8D0CA6812
:102BB00022F04002CA60202180F8411002B0BDE836
:102BC000B04000F03FBC00BFC16B0A68526893B2CE
:102BD000002BB5D0858DAB42B2D2C2858969202940
:102BE00000F0A180016851E8031F026821F48071A0
:102BF00042E80313DBB1016851E8031F026821F4C6
:102C0000807142E8031393B1016851E8031F026821
:102C100021F4807142E803134BB1016851E8031FAE
:102C2000026821F4807142E80313002BDAD10168B5
:102C300051E8051F026821F0010142E80513C3B302
:102C4000016851E8051F026821F0010142E80513FF
:102C50007BB3016851E8051F026821F0010142E8D9
:102C6000051333B3016851E8051F026821F0010123
:102C700042E80513002BDAD11BE000BF016851E8E0
:102C8000051F026821F0400142E80513DBB101682D
:102C900051E8051F026821F0400142E8051393B195
:102CA000016851E8051F026821F0400142E8051360
:102CB0004BB1016851E8051F026821F0400142E86C
:102CC0000513002BDAD1202180F842100021016386
:102CD000016851E8031F026821F0100142E8031364
:102CE000DBB1016851E8031F026821F0100142E8DE
:102CF000031393B1016851E8031F026821F010012A
:102D000042E803134BB1016851E8031F026821F048
:102D1000100142E80313002BDAD1C16B04460846C8
:102D2000FEF7EEFC204602214163818DC28D891A97
:102D300089B202B0BDE8B040FFF7C8BE436C43F0B3
:102D400001034364530706D5BEF1000F03D0436C63
:102D500043F002034364930706D5BEF1000F03D08E
:102D6000436C43F004034364BCF1000F06D55EEAF4
:102D7000050303D0436C43F008034364436C002B0A
:102D80003FF4DEAE920605D525B1044602F018FDEB
:102D9000216820464969426C01F0400102F00802B6
:102DA000891800F0B98000BF016851E8031F02686C
:102DB00021F4907142E80313BBB3016851E8031F8B
:102DC000026821F4907142E8031373B3016851E87B
:102DD000031F026821F4907142E803132BB30168CA
:102DE00051E8031F026821F4907142E80313002B9D
:102DF000DAD11AE0016851E8051F026821F00101EB
:102E000042E80513DBB1016851E8051F026821F0B3
:102E1000010142E8051393B1016851E8051F0268FA
:102E200021F0010142E805134BB1016851E8051F8B
:102E3000026821F0010142E80513002BDAD1016B91
:102E4000012924D1016851E8031F026821F0100113
:102E500042E80313DBB1016851E8031F026821F067
:102E6000100142E8031393B1016851E8031F02689F
:102E700021F0100142E803134BB1016851E8031F30
:102E8000026821F0100142E80313002BDAD120215F
:102E900080F842100021016301684969490640F148
:102EA000C380016851E8051F026821F0400142E833
:102EB0000513DBB1016851E8051F026821F04001EC
:102EC00042E8051393B1016851E8051F026821F03B
:102ED000400142E805134BB1016851E8051F026843
:102EE00021F0400142E80513002BDAD1C16B002923
:102EF00000F09A8045F2B572C0F60002044608461A
:102F00004A63FEF721FC00283FF41AAEE06B416BE8
:102F100002B0BDE8B04008470446FFF7D9FD0020E5
:102F2000606402B0B0BD00BF891A00BF026852E8F9
:102F3000032F036822F4907243E80325BDB30268AF
:102F400052E8032F036822F4907243E8032575B317
:102F5000026852E8032F036822F4907243E80325C5
:102F60002DB3026852E8032F036822F4907243E8FD
:102F70000325002DDAD11AE0026852E8052F036814
:102F800022F0010243E80525DDB1026852E8052F71
:102F9000036822F0010243E8052595B1026852E872
:102FA000052F036822F0010243E805254DB10268B0
:102FB00052E8052F036822F0010243E80525002DA1
:102FC000DAD1202280F8422000220263026852E80F
:102FD000032F036822F0100243E80325DDB10268E5
:102FE00052E8032F036822F0100243E8032595B14D
:102FF000026852E8032F036822F0100243E8032519
:103000004DB1026852E8032F036822F0100243E832
:103010000325002DDAD1022289B2426302B0BDE855
:10302000B040FFF753BD00BF02B0BDE8B040FFF7AE
:103030004FBD00BF026A32F8023B6FF35F234B6063
:10304000026295E5002804BF0120704710B50446D0
:1030500090F8410028B9002084F84000204600F094
:1030600063F8242084F841002068D4E90212C36880
:1030700023F40053C360036923F440531A430261ED
:10308000D4E904231143C268194341F20C639A4303
:103090001143C1604169A26921F44071114343F6B3
:1030A0000002C4F201029042416103D0FFF740F9EF
:1030B00002E000BFFFF750F9D4E90023192148438B
:1030C0009900B0FBF1F048F21F5CC5F2EB1CA0FBCD
:1030D0000C314FF69C734909C0F6FF7301FB0300E6
:1030E000322303EB0010A0FB0C03F02000EA531086
:1030F00000EB0110C3F343110844906010692021D4
:1031000020F490401061506920F02A005061D0688E
:1031100040F40050D0600020606484F8411084F8CE
:103120004210606310BD000070B586B040F6000428
:10313000C4F20104006804F5405100268842059657
:10314000CDE90366029601D006B070BD41F21800C9
:10315000C4F20200016802AD41F4804101600168DF
:1031600001F4804101910199016841F0040101607D
:103170000068294600F00400019001984FF40070A7
:10318000029002200390032005902046FEF74CFB9E
:103190004FF48060CDE90206204629460496FEF7EA
:1031A00043FB252000210022FEF7AAFE2520FEF782
:1031B00095FE06B070BD000090F84230202B07D17C
:1031C00000294FF0010318BF002A05D118467047A7
:1031D00002231846704700BF002303638162222147
:1031E0008285C285436480F842100169006819B184
:1031F000C16841F48071C160416941F001014161E0
:10320000C16841F02001C16018467047006843F66C
:103210000001C4F20101884218BF704770B540F246
:103220008006C2F20006F279B179A2F131000228DB
:103230004FF0000002F0F7044FF0000388BF0120B8
:10324000443CA2F1410518BF0124012D88BF012390
:103250001840204208BF00290CD00D2A01D00A2AAC
:1032600010D1C9B106F13C000024445402F0D2F858
:10327000B47111E0304600F83C2F0021417002F09B
:10328000C9F809E0122905D8481CB071701880F8F7
:103290003C2001E00020B07140F2D000C2F20000FA
:1032A0003030F11D0122BDE87040FFF785BF0000FE
:1032B0002DE9F04381B0044690F84100202809D15F
:1032C00000294FF0010018BF002A07D101B0BDE866
:1032D000F08300BF022001B0BDE8F08300206064ED
:1032E00021201D460E4684F841001746FEF7B2FB2A
:1032F000A784E784A1688146B1F5805F02D1206987
:1033000000285DD037460020E28C2168002A5DD07D
:103310006A1C24D0002D4AD0804600BF08680006F1
:1033200008D4FEF797FBA0EB0900A8427AD82168E1
:10333000C868F3E717B117F8010B04E038F8020B7F
:1033400000276FF35F204860E08C0138E084E08C58
:103350000028E3D13AE000BF0A68120609D40A68DF
:10336000120606D40A6812065CBF0A685FEA0262A7
:10337000F2D51FB117F8012B05E000BF30F8022B82
:1033800000276FF35F224A60E28C013AE284E28C0C
:10339000002AE4D11AE000BF30F8022B00276FF3B7
:1033A0005F224A60E28C013AE284E28C72B10A68E0
:1033B000120635D5002FEFD017F8012BF1E700BF2B
:1033C00000273046E28C2168002AA1D10868400617
:1033D0001ED42DB3681C14D1086840062AD408688E
:1033E000400627D40868400624D4086840064FF0F9
:1033F0000000F1D50DE000BF2068C16800684006FC
:1034000018D4FEF727FBA0EB0900A842F4D909E085
:103410000020202184F8411001B0BDE8F08300BFF6
:10342000FEF718FB0320202184F8411001B0BDE80D
:10343000F08300BF0020202184F8411001B0BDE8D6
:10344000F083000070470000FEE7000070B50368DD
:10345000044653F8140F400711D40E46481C29D0D7
:1034600086BB00BF1868400527D4FEF7F3FA23682F
:1034700053F8140F400737D518684007F2D50020DD
:1034800070BD00BF18684007F9D41868400514D40F
:1034900018684007F3D4186840050ED41868400730
:1034A000EDD41868400508D4186840074FF00000B4
:1034B00048BF70BD18684005E4D56FF4806018609F
:1034C000042012E0154603E053F8140F4007D6D449
:1034D00018684005F1D4FEF7BDFA401B2368B042DE
:1034E000F2D958694007EFD420200021202221631F
:1034F00084F83D2084F83E10226C104320640120A3
:1035000084F83C1070BD00002DE9F04105460068CC
:103510001E46144601F47F0201338FB242D0DDF81B
:103520001880B2F5803F40F0878040693840C01B6A
:10353000B0FA80F04009844240F0C8804EB924E0DF
:1035400040693840C01BB0FA80F04009844240F026
:10355000BD80FEF77FFAA0EB08012868B142EFD9E1
:1035600041693940C91BB1FA81F149098C42E7D15F
:103570009BE000BF40693840C01BB0FA80F04009B2
:1035800084424FF0000040F0A280FEF763FA286802
:1035900041693940C91BB1FA81F149098C42E9D12D
:1035A00083E000BFB2F5803F24D100BF41693940BC
:1035B000C91BB1FA81F149098C4240F08780416909
:1035C0003940C91BB1FA81F149098C4240F07E8033
:1035D00041693940C91BB1FA81F149098C4275D161
:1035E00041693940C91BB1FA81F149098C42DDD0EA
:1035F0006CE000BF81693940C91BB1FA81F149090A
:103600008C4263D181693940C91BB1FA81F1490902
:103610008C425BD181693940C91BB1FA81F14909FA
:103620008C4253D181693940C91BB1FA81F14909F2
:103630008C42DFD04AE000BF80693840C01BB0FA3E
:1036400080F04009844241D146B923E08069384086
:10365000C01BB0FA80F04009844237D1FEF7FAF976
:10366000A0EB08012868B142F0D981693940C91B33
:10367000B1FA81F149098C42E8D116E080693840FD
:10368000C01BB0FA80F0400984424FF0000018BF20
:10369000BDE8F081FEF7DEF9286881693940C91B71
:1036A000B1FA81F149098C42E8D100202021286338
:1036B00085F83D1085F83E00296C41F02001296411
:1036C00085F83C000120BDE8F08100BF0020BDE886
:1036D000F0810000F0B581B0044600681D464369E2
:1036E0008FB203EA0701B94202D1002001B0F0BD58
:1036F0004169164601323CD0490512D47EB300BF61
:10370000FEF7A8F9411B2068B14203D9416939404D
:10371000B9422BD141693940B942E6D041694905E6
:10372000EED5016841F4007101606FF48061416180
:10373000042000212022216384F83D2084F83E10DB
:10374000226C1043206484F83C10012001B0F0BDCD
:1037500041693940B942C8D041694905E1D4FEF711
:1037600079F9206841693940B942F1D02020E0E779
:1037700041694905D5D441693940B942B5D041695B
:103780004905CED441693940B942AED041694905B5
:10379000C7D441693940B942A7D041694905C0D46D
:1037A00041693940B942E3D19FE7000070B5036831
:1037B000044653F8140F000611D40E46481C29D0B5
:1037C00086BB00BF1868400527D4FEF743F923687D
:1037D00053F8140F000637D518680006F2D50020FC
:1037E00070BD00BF18680006F9D41868400514D4ED
:1037F00018680006F3D4186840050ED4186800064F
:10380000EDD41868400508D4186800064FF0000091
:1038100048BF70BD18684005E4D56FF4806018603B
:10382000042012E0154603E053F8140F0006D6D426
:1038300018684005F1D4FEF70DF9401B2368B0422B
:10384000F2D958690006EFD42020002120222163FC
:1038500084F83D2084F83E10226C1043206401203F
:1038600084F83C1070BD0000F0B581B040F6000453
:103870000120C4F20104ADF802002046102100220C
:10388000FEF7E2F840F29C15C2F200050DF10206C7
:1038900028463146022264230227FFF703F8204618
:1038A00010210122FEF7D0F8204610210022ADF8A9
:1038B0000270FEF7C9F82846314602226423FEF75B
:1038C000F1FF204610210122FEF7BEF80320ADF8DB
:1038D0000200204610210022FEF7B6F828463146A5
:1038E00002226423FEF7DEFF204610210122FEF7AC
:1038F000ABF80420ADF80200204610210022FEF7AC
:10390000A3F82846314602226423FEF7CBFF204667
:1039100010210122FEF798F80520ADF8020020469C
:1039200010210022FEF790F8284631460222642337
:10393000FEF7B8FF204610210122FEF785F8062089
:10394000ADF80200204610210022FEF77DF828463F
:10395000314602226423FEF7A5FF204610210122F2
:10396000FEF772F80720ADF8020020461021002271
:10397000FEF76AF82846314602226423FEF792FFDA
:10398000204610210122FEF75FF80820ADF8020062
:10399000204610210022FEF757F828463146022221
:1039A0006423FEF77FFF204610210122FEF74CF82A
:1039B00001B0F0BDB0B584B040F60004C4F201041B
:1039C000204610210122FEF73FF80C20ADF804003C
:1039D000204610210022FEF737F840F29C15C2F273
:1039E000000501A9284602226423FEF75BFF20465A
:1039F00010210122FEF728F80920ADF80600204624
:103A000010210022FEF720F80DF1060128460222BF
:103A10006423FEF747FF204610210122FEF714F829
:103A200040F20A30ADF80800204610210022FEF7CF
:103A30000BF802A9284602226423FEF733FF204632
:103A400010210122FEF700F840F20B70ADF80A00D9
:103A5000204610210022FDF7F7FF0DF10A0128464C
:103A600002226423FEF71EFF204610210122FDF7EB
:103A7000EBFF0F20ADF80C00204610210022FDF7CF
:103A8000E3FF03A9284602226423FEF70BFF20462A
:103A900010210122FDF7D8FF4FF48670ADF80E001B
:103AA000204610210022FDF7CFFF0DF10E01284620
:103AB00002226423FEF7F6FE204610210122FDF7C4
:103AC000C3FFFFF7D1FE04B0B0BD000046F24A20AC
:103AD000C0F6000000F00CB846F25220C0F600001C
:103AE00000F006B846F25A20C0F60000AFF300809E
:103AF0002DE9F04F83B005784178C5F340074E08B3
:103B0000C5F3800E66F341078E08C5F3C00A66F35D
:103B1000410ECE08C5F3001B66F3410A0E09C5F33A
:103B2000401866F3410B4E098378C5F3801966F39C
:103B300041088E0966F341094EB2B6F1FF3F4FEAE4
:103B4000931666F382094FEA531666F382084FEA2A
:103B5000131605F0010466F3820B4FEAD306C27810
:103B60004FEAD51C61F3410466F3820A4FEA9306DB
:103B70000CF1020163F3820466F3820E4FEA5306EE
:103B80005BB2C8BFE90966F38207B3F1FF3F4FEAB2
:103B9000520363F3C3074FEA920363F3C30E4FEA82
:103BA000D20363F3C30A4FEA121363F3C30B4FEA62
:103BB000521363F3C3084FEA921362F3C30452B281
:103BC000D8BF0431B2F1FF3F027963F3C3094FEA72
:103BD000921363F304194FEA521363F304184FEA84
:103BE000121363F3041B4FEAD2033E46774663F396
:103BF000041A4FEA920362F3041463F304174FEAC2
:103C0000520352B2D8BF0831B2F1FF3F427963F399
:103C100004164FEA520363F345164FEA920363F327
:103C200045174FEAD20363F3451A4FEA121363F3C1
:103C3000451B4FEA521363F345184FEA921362F3A0
:103C4000451452B2D8BF41F01001B2F1FF3F827962
:103C500063F3451953B2D8BF41F02001B3F1FF3FE0
:103C6000D8BF41F04001530648BF49F040099306D0
:103C700048BF48F04008D30648BF4BF0400B13073D
:103C800048BF4AF0400A530748BF47F04007C07991
:103C900062F38614920742B248BF46F04006002AFB
:103CA00048BF41F08001420648BF49F080098206C2
:103CB00048BF48F08008C20648BF4BF0800B02079F
:103CC00048BF4AF0800A420748BF47F08007820792
:103CD00048BF46F08006C00740F600054FF00100DF
:103CE000C4F20105009618BF44F080048DF80A0064
:103CF0008DF80B102846102100220194FDF7A4FE38
:103D000040F29C10C2F200000DF10A01022264236D
:103D100006460224FEF7C6FD284610210122FDF7C3
:103D200093FE2846102100228DF80A408DF80B9052
:103D3000FDF78AFE344630460DF10A06314602226E
:103D40006423FEF7AFFD284610210122FDF77CFE1B
:103D500003208DF80A002846102100228DF80B80E0
:103D6000FDF772FE2046314602226423FEF79AFDDB
:103D7000284610210122FDF767FE04208DF80A0075
:103D80002846102100228DF80BB0FDF75DFE20467D
:103D9000314602226423FEF785FD284610210122C8
:103DA000FDF752FE05208DF80A002846102100225A
:103DB0008DF80BA0FDF748FE204631460222642311
:103DC000FEF770FD284610210122FDF73DFE06207A
:103DD0008DF80A002846102100228DF80B70FDF79F
:103DE00033FE2046314602226423FEF75BFD28465F
:103DF00010210122FDF728FE07208DF80A00009807
:103E000010218DF80B0028460022FDF71DFE2046EC
:103E1000314602226423FEF745FD28461021012287
:103E2000FDF712FE08208DF80A00019810218DF888
:103E30000B0028460022FDF707FE204631460222ED
:103E40006423FEF72FFD284610210122FDF7FCFD1B
:103E500003B0BDE8F08F000046F26220C0F600001B
:103E6000FFF746BEFEE70000FEE700002DE9F04F39
:103E7000C3B002A88021FCF755FC40F248164FF46D
:103E80003040C2F200060DF18B050DF18B08ADF844
:103E90008B006424304678212A46022308F101076A
:103EA0000094FDF78FFE4FF480500DF18B0BADF8B1
:103EB0008B00304678215A4602234FF4805A0094F2
:103EC000FDF780FE00200DF18B09ADF88B00304628
:103ED00078214A4602230094FDF774FE40208DF8B5
:103EE0008B0038468021FCF7FBFB304678214246A8
:103EF00081230094FDF766FE4FF43140ADF88B004E
:103F0000304678212A4602230094FDF75BFE3046B6
:103F100078215A460223ADF88BA00094FDF752FE9B
:103F20000020ADF88B00304678214A460223CA466D
:103F30000094FDF747FE40208DF88B003846802125
:103F4000FCF7CEFB3046782142468123C1460094DF
:103F5000FDF738FE4FF43240ADF88B003046782143
:103F60002A4602230094FDF72DFE4FF48050ADF851
:103F70008B00304678215A4602230094FDF722FE3A
:103F80000020ADF88B0030467821524602234FF0D6
:103F900000080094FDF716FE40208DF88B0038468F
:103FA0008021FCF79DFB304678214A46812300940E
:103FB000FDF708FE4FF43340ADF88B003046782112
:103FC0002A4602230094FDF7FDFD4FF48050ADF822
:103FD0008B00304678215A4602230094FDF7F2FD0B
:103FE0003046782152460223ADF88B804FF000080E
:103FF0000094FDF7E7FD40208DF88B0038468021C6
:10400000FCF76EFB304678214A4681230094FDF789
:10401000D9FD4FF43440ADF88B00304678212A4664
:1040200002230094FDF7CEFD4FF48050ADF88B00D5
:10403000304678215A4602230094FDF7C3FD3046EE
:10404000782152460223ADF88B800094FDF7BAFD2B
:1040500040208DF88B0038468021FCF741FB30462C
:1040600078214A4681230094FDF7ACFD4FF435409A
:10407000ADF88B00304678212A460223A8460094EA
:10408000FDF7A0FD4FF48050ADF88B00304678214D
:104090005A4602230094FDF795FD0020ADF88B00F1
:1040A00030467821524602230094FDF78BFD4020D4
:1040B00002AD8DF88B00384629468022FCF7CBFAFA
:1040C000304678214A4681230094FDF77BFD4FF46A
:1040D0003640ADF88B0030467821424602230094EA
:1040E000FDF770FD4FF48050ADF88B00304678211D
:1040F0005A4602230094FDF765FD0020ADF88B00C1
:1041000030467821524602230094FDF75BFD4020A3
:104110008DF88B00384629468022FCF79CFA304601
:1041200078214A4681230094FDF74CFD4FF4374037
:10413000ADF88B0030467821424602230094FDF70B
:1041400041FD4FF48050ADF88B00304678215A463F
:1041500002230094FDF736FD0020ADF88B003046B9
:104160007821524602230094FDF72CFD40208DF863
:104170008B00384629468022FCF76DFA30467821BC
:104180004A4681230094FDF71DFD43B0BDE8F08F42
:104190002DE9F04FC7B00C46054606A880211E4603
:1041A0001746FCF7BFFA5FEAD60A00F0A380681E44
:1041B000C1B20909A4F1510201F1100C00F00F0382
:1041C000002F07F10101CDE9042A53D003970DF127
:1041D0009B0040F2481701304FF0000B4FF064088D
:1041E000C2F200070DF19B054FF0000964469A46A4
:1041F0000E46029002EB09008DF89C0038467821AB
:104200002A4602238DF89BB0CDF80080FDF7DAFC3A
:10421000384678212A4602238DF89BB08DF89C40C1
:10422000CDF80080FDF7CEFC384678212A460223DF
:104230008DF89BB08DF89CA0CDF80080FDF7C2FCF6
:1042400040208DF89B000298039A06A9FCF703FA18
:10425000384678212A463346CDF80080FDF7B2FC77
:1042600009F101090599049A5FFA89F08842C1D3DE
:1042700040E000BF40F248154FF000096424C2F24C
:1042800000050DF19B060027E3469A46884600BFCD
:10429000D0198DF89C0028467821324602238DF8EB
:1042A0009B900094FDF78EFC28467821324602232D
:1042B0008DF89B908DF89CB00094FDF783FC284608
:1042C0007821324602238DF89B908DF89CA00094B3
:1042D000FDF778FC40208DF89B0028467821324677
:1042E00043460094FDF76EFC01370599049AF8B235
:1042F0008842CDD347B0BDE8F08F00002DE9F041F2
:1043000082B064206425FDF77BFA40F248144FF434
:104310002E40C2F20004ADF806000DF10602204660
:10432000782102230095FDF74DFC4FF400580DF164
:104330000602204678210223ADF806800095FDF79D
:1043400041FC4FF480560DF10602204678210223ED
:10435000ADF806600095FDF735FC4FF43040ADF840
:1043600006000DF106022046782102230095FDF794
:1043700029FC4FF44840ADF806000DF10602204636
:10438000782102230095FDF71DFC00270DF10602A0
:10439000204678210223ADF806700095FDF712FC47
:1043A0000DF10602204678210223ADF80660009543
:1043B000FDF708FC4FF48040ADF806000DF1060251
:1043C0002046782102230095FDF7FCFB4FF40140C5
:1043D000ADF806000DF10602204678210223009573
:1043E000FDF7F0FB4FF4FE40ADF806000DF10602BC
:1043F0002046782102230095FDF7E4FB4FF421408D
:10440000ADF806000DF10602204678210223009542
:10441000FDF7D8FB4FF42640ADF806000DF106027B
:104420002046782102230095FDF7CCFB4FF428406D
:10443000ADF806000DF10602204678210223009512
:10444000FDF7C0FB4FF47C50ADF806000DF10602FD
:104450002046782102230095FDF7B4FB4FF4244059
:10446000ADF806000DF106022046782102230095E2
:10447000FDF7A8FB4FF45340ADF806000DF106021E
:104480002046782102230095FDF79CFB0DF10602E2
:10449000204678210223ADF806700095FDF792FBC7
:1044A0004FF45540ADF806000DF106022046782184
:1044B00002230095FDF786FB4FF47040ADF806002F
:1044C0000DF106022046782102230095FDF77AFBC4
:1044D0004FF45940ADF806000DF106022046782150
:1044E00002230095FDF76EFB4FF40850ADF806006F
:1044F0000DF106022046782102230095FDF762FBAC
:104500004FF45A40ADF806000DF10602204678211E
:1045100002230095FDF756FB4FF49050ADF80600CE
:104520000DF106022046782102230095FDF74AFB93
:104530004FF45B40ADF806000DF1060220467821ED
:1045400002230095FDF73EFB0DF10602204678217F
:104550000223ADF806800095FDF734FB4FF40D40C3
:10456000ADF806000DF106022046782102230095E1
:10457000FDF728FB4FF4A050ADF806000DF1060240
:104580002046782102230095FDF71CFB4FF42F40B5
:10459000ADF806000DF106022046782102230095B1
:1045A000FDF710FBFFF762FC02B0BDE8F0810000F0
:1045B0002DE9F04FCBB09046DA08099200F0DE8387
:1045C0000138C2B200F00F00513906900DF1AB0076
:1045D0000891110901304FEAD8041031029008F116
:1045E000010008F0030A08F0FC090AAF4FF0000BC5
:1045F00007910590CDE9034A13E000BF40F248104F
:10460000059BC2F2000078210DF1AB020096FDF788
:10461000D9FA099804F1010BDDE9034A834500F05A
:10462000AD83B8F1000F00F0B58138464146FCF784
:1046300079F8DDF850C14FEACB0000FB04C100223D
:10464000B8F1040F80F0EE81BAF1000F28D0D30842
:10465000CB5C02F00706F340DB0703D0BB5C43F002
:104660000103BB54BAF1010F1AD0531CDE088E5D52
:1046700003F00705EE40F60703D0FE5C46F00106A6
:10468000FE54BAF1020F0BD00232D308C95C02F01B
:104690000703D940C90703D0B95C41F00101B954FF
:1046A00040F0010101FB04C10022B8F1040F80F0C9
:1046B000EF81BAF1000F29D0D308CB5C02F00706D6
:1046C000F340DB0703D0BB5C43F00203BB54BAF1F9
:1046D000010F1BD0531CDE088E5D03F00705EE4072
:1046E000F60703D0FE5C46F00206FE54BAF1020F54
:1046F0000CD00232D308C95C02F00703D940C907C5
:1047000004D0B95C41F00201B95400BF40F002018D
:1047100001FB04C10022B8F1040F80F0EF81BAF16F
:10472000000F29D0D308CB5C02F00706F340DB076B
:1047300003D0BB5C43F00403BB54BAF1010F1BD0A0
:10474000531CDE088E5D03F00705EE40F60703D02C
:10475000FE5C46F00406FE54BAF1020F0CD00232A1
:10476000D308C95C02F00703D940C90704D0B95C7B
:1047700041F00401B95400BF40F0030101FB04C142
:104780000022B8F1040F80F0EF81BAF1000F29D0B8
:10479000D308CB5C02F00706F340DB0703D0BB5C19
:1047A00043F00803BB54BAF1010F1BD0531CDE08C1
:1047B0008E5D03F00705EE40F60703D0FE5C46F081
:1047C0000806FE54BAF1020F0CD00232D308C95CBD
:1047D00002F00703D940C90704D0B95C41F00801D1
:1047E000B95400BF40F0040101FB04C10022B8F13C
:1047F000040F80F0EF81BAF1000F29D0D308CB5C11
:1048000002F00706F340DB0703D0BB5C43F0100364
:10481000BB54BAF1010F1BD0531CDE088E5D03F0B0
:104820000705EE40F60703D0FE5C46F01006FE5486
:10483000BAF1020F0CD00232D308C95C02F00703B0
:10484000D940C90704D0B95C41F01001B95400BF88
:1048500040F0050101FB04C10022B8F1040F80F013
:10486000EF81BAF1000F29D0D308CB5C02F0070624
:10487000F340DB0703D0BB5C43F02003BB54BAF129
:10488000010F1BD0531CDE088E5D03F00705EE40C0
:10489000F60703D0FE5C46F02006FE54BAF1020F84
:1048A0000CD00232D308C95C02F00703D940C90713
:1048B00004D0B95C41F02001B95400BF40F00601BA
:1048C00001FB04C10022B8F1040F80F0EF81BAF1BE
:1048D000000F29D0D308CB5C02F00706F340DB07BA
:1048E00003D0BB5C43F04003BB54BAF1010F1BD0B3
:1048F000531CDE088E5D03F00705EE40F60703D07B
:10490000FE5C46F04006FE54BAF1020F0CD00232B3
:10491000D308C95C02F00703D940C90704D0B95CC9
:1049200041F04001B95400BF40F0070000FB04C053
:104930000021B8F1040F80F0EF81BAF1000F29D007
:10494000CA08825C01F00703DA40D20703D07A5C20
:1049500042F080027A54BAF1010F1BD04A1CD308EE
:10496000C35C02F00706F340DB0703D0BB5C43F0F7
:104970008003BB54BAF1020F0CD00231CA08805C2C
:1049800001F00702D040C00704D0785C40F08000FE
:10499000785400BF089840F2481A5844C2F2000AFE
:1049A0000DF1AB055C4600268DF8AC005046782131
:1049B0002A460223C3464FF064088DF8AB60CDF859
:1049C0000080FDF7FFF8079878218DF8AC0050467D
:1049D0002A4602238DF8AB60CDF80080FDF7F2F88F
:1049E000069878218DF8AC0050462A4602238DF8AF
:1049F000AB606426CDF80080D846FDF7E3F8BBF144
:104A0000000F4FF040008DF8AB003FF4F7AD029877
:104A100039464246FBF71FFEF0E500BF04329145E0
:104A20003FF412AED308CE5C02F00405EE40F60768
:104A300003D0BE5C46F00106BE54561CCD5C06F0A9
:104A4000050625FA06F6F60704D0BE18757845F077
:104A500001057570961CCD5C06F0060625FA06F673
:104A6000F60704D0BE18B57845F00105B570D61C20
:104A7000CB5C06F00706F340DB07CFD0BB18DE782F
:104A800046F00106DE70C9E7043291453FF411AEED
:104A9000D308CE5C02F00405EE40F60703D0BE5CFE
:104AA00046F00206BE54561CCD5C06F0050625FAFB
:104AB00006F6F60704D0BE18757845F00205757045
:104AC000961CCD5C06F0060625FA06F6F60704D01D
:104AD000BE18B57845F00205B570D61CCB5C06F063
:104AE0000706F340DB07CFD0BB18DE7846F002069E
:104AF000DE70C9E7043291453FF411AED308CE5CB5
:104B000002F00405EE40F60703D0BE5C46F0040652
:104B1000BE54561CCD5C06F0050625FA06F6F607CF
:104B200004D0BE18757845F004057570961CCD5CF0
:104B300006F0060625FA06F6F60704D0BE18B57884
:104B400045F00405B570D61CCB5C06F00706F340B3
:104B5000DB07CFD0BB18DE7846F00406DE70C9E76D
:104B6000043291453FF411AED308CE5C02F0040547
:104B7000EE40F60703D0BE5C46F00806BE54561C55
:104B8000CD5C06F0050625FA06F6F60704D0BE1839
:104B9000757845F008057570961CCD5C06F0060624
:104BA00025FA06F6F60704D0BE18B57845F00805D4
:104BB000B570D61CCB5C06F00706F340DB07CFD000
:104BC000BB18DE7846F00806DE70C9E7043291456E
:104BD0003FF411AED308CE5C02F00405EE40F607B8
:104BE00003D0BE5C46F01006BE54561CCD5C06F0E9
:104BF000050625FA06F6F60704D0BE18757845F0C6
:104C000010057570961CCD5C06F0060625FA06F6B2
:104C1000F60704D0BE18B57845F01005B570D61C5F
:104C2000CB5C06F00706F340DB07CFD0BB18DE787D
:104C300046F01006DE70C9E7043291453FF411AE2C
:104C4000D308CE5C02F00405EE40F60703D0BE5C4C
:104C500046F02006BE54561CCD5C06F0050625FA2B
:104C600006F6F60704D0BE18757845F02005757075
:104C7000961CCD5C06F0060625FA06F6F60704D06B
:104C8000BE18B57845F02005B570D61CCB5C06F093
:104C90000706F340DB07CFD0BB18DE7846F02006CE
:104CA000DE70C9E7043291453FF411AED308CE5C03
:104CB00002F00405EE40F60703D0BE5C46F0400665
:104CC000BE54561CCD5C06F0050625FA06F6F6071E
:104CD00004D0BE18757845F040057570961CCD5C03
:104CE00006F0060625FA06F6F60704D0BE18B578D3
:104CF00045F04005B570D61CCB5C06F00706F340C6
:104D0000DB07CFD0BB18DE7846F04006DE70C9E77F
:104D1000043189453FF411AECA08835C01F00406F2
:104D2000F340DB0703D07B5C43F080037B544B1CD8
:104D3000865C03F0050326FA03F3DB0704D07B1837
:104D40005E7846F080065E708B1C865C03F006037E
:104D500026FA03F3DB0704D07B189E7846F0800622
:104D60009E70CB1C825C03F00703DA40D207CFD0E1
:104D70007A18D37843F08003D370C9E74BB0BDE80D
:104D8000F08F00002DE9F043A3B02C3AD2B24FF0DF
:104D90000008482A4FF0000605D846F20C13C0F66A
:104DA000000353F8226040F24814471EA1F151005D
:104DB000C2F200048DF80C004FF064090DF10B02F3
:104DC000204678210223FDB28DF80B80CDF80090AB
:104DD000FCF7F8FE280910308DF80C000DF10B02DD
:104DE0002046782102238DF80B80CDF80090FCF747
:104DF000E9FE07F00F008DF80C000DF10B022046C4
:104E0000782102238DF80B80CDF80090FCF7DAFEB4
:104E100046F26A2106EB4600C0F6000101EB4002B3
:104E200051F81000918840238DF80B300390ADF8B5
:104E300010100DF10B02204678210723CDF80090C9
:104E4000FCF7C0FE23B0BDE8F08300002DE9F04779
:104E5000AAB047F2722302EBC202C0F600038846F2
:104E6000002103EB820205AB01ADCDE90711CDE9CD
:104E70000511CDE90311CDE9011103E0013110293C
:104E800000F08C8002EB41063779FC0726D076795A
:104E9000BC072AD57C072ED53C0732D5FC0636D573
:104EA000BC063AD57C063ED57FB2002F03D45F5CAA
:104EB00047F080075F54F7073ED0B70742D5770722
:104EC00046D537074AD5F7064ED5B70652D57706E9
:104ED00056D577B2002F5BD5D0E700BF5C5C44F0BD
:104EE00001045C547679BC07D4D45C5C44F00204C1
:104EF0005C547C07D0D45C5C44F004045C543C07F4
:104F0000CCD45C5C44F008045C54FC06C8D45C5C03
:104F100044F010045C54BC06C4D45C5C44F020042F
:104F20005C547C06C0D45C5C44F040045C547FB2AA
:104F3000002FBCD5BFE700BF6F5C47F001076F547F
:104F4000B707BCD46F5C47F002076F547707B8D43B
:104F50006F5C47F004076F543707B4D46F5C47F0B9
:104F600008076F54F706B0D46F5C47F010076F5412
:104F7000B706ACD46F5C47F020076F547706A8D40F
:104F80006F5C47F040076F5477B2002F3FF576AF64
:104F90006F5C47F080076F5470E700BF40F2481520
:104FA000471EA8F15100C2F200054FF000098DF82C
:104FB000280064260DF12702284678210223FCB23E
:104FC0008DF827900096FCF7FDFD200900F11004F4
:104FD0000DF127022846782102238DF827908DF8BD
:104FE00028400096FCF7EEFD07F00F070DF12702B1
:104FF0002846782102238DF827908DF82870009696
:10500000FCF7E0FD05AB0FCB4FF0400A0A900B9187
:105010000C920D930DF127022846782111238DF86B
:1050200027A00096FCF7CEFDA8F150008DF82800CF
:105030000DF127022846782102238DF8279000964B
:10504000FCF7C0FD0DF127022846782102238DF8D8
:1050500027908DF828400096FCF7B4FD0DF127024B
:105060002846782102238DF827908DF82870009625
:10507000FCF7A8FD01AB0FCB0B910A900C920D939E
:105080000DF127022846782111238DF827A00096DC
:10509000FCF798FD2AB0BDE8F08700002DE9F04F3D
:1050A000ADB047F2722702EBC202C0F60007002340
:1050B00007EB820C08AD04ACCDE90A33CDE9083327
:1050C000CDE90633CDE9043304E000BF0133102BF2
:1050D00000F08C800CEB43073E79F20726D07F79F5
:1050E000B2072AD572072ED5320732D5F20636D549
:1050F000B2063AD572063ED572B2002A03D4EA5CF3
:1051000042F08002EA54FA073ED0BA0742D57A0745
:1051100046D53A074AD5FA064ED5BA0652D57A068A
:1051200056D57AB2002A5BD5D0E700BFEA5C42F0E0
:105130000102EA547F79B207D4D4EA5C42F0020259
:10514000EA547207D0D4EA5C42F00402EA5432070F
:10515000CCD4EA5C42F00802EA54F206C8D4EA5C15
:1051600042F01002EA54B206C4D4EA5C42F02002D3
:10517000EA547206C0D4EA5C42F04002EA5472B2C9
:10518000002ABCD5BFE700BFE25C42F00102E25456
:10519000BA07BCD4E25C42F00202E2547A07B8D407
:1051A000E25C42F00402E2543A07B4D4E25C42F01A
:1051B0000802E254FA06B0D4E25C42F01002E25473
:1051C000BA06ACD4E25C42F02002E2547A06A8D4DB
:1051D000E25C42F04002E2547AB2002A3FF576AF38
:1051E000E25C42F08002E25470E700BFA0F180026E
:1051F00092B24FF671739A42C0F0A380424202EA23
:10520000E03A10261FFA8AFB7028C8BFC0F180065A
:10521000B2B25A4540F2958040F2481720EAE07851
:10522000A1F151000022C2F200078DF833208DF861
:1052300034004FF0640C0DF13302384601917821AF
:1052400002235FFA88F9CDF800C0FCF7BBFC4FEAF7
:1052500019101030002103908DF833108DF83400B0
:105260000DF133023846B9467821022364270097AE
:10527000FCF7A8FC08F00F00002102908DF8331015
:105280008DF834000DF1330248467821022364275B
:10529000C84691460097FCF795FCA6EB0A0640200D
:1052A0008DF8330009F101004F461FFA86F905EB2E
:1052B0000B014A46FBF7CFF9701C85B240467821B6
:1052C0003A462B4664260096FCF77CFC01980027A2
:1052D00050388DF834000DF1330240467821022316
:1052E0008DF8337000966426FCF76CFC03980DF182
:1052F00033028DF834004046782102238DF8337054
:105300000096FCF75FFC02988DF833700DF13307BF
:105310008DF83400404678213A4602230096FCF787
:1053200051FC40208DF8330004EB0B01781C4A46F9
:10533000FBF791F9404678213A462B460096FCF758
:1053400041FC2DB0BDE8F08F002A08BF70472DE961
:10535000F04106468020A0EB0210400801301446C0
:105360008846C7B2002500BF08EB0500C2B2F8B2FC
:105370003146FFF76BFD0135AC4207F11007F3D161
:10538000BDE8F041704700001378002B08BF70475C
:1053900070B50C460546561EE8B2DAB22146FFF754
:1053A000F1FCB3780635002B06F10106F4D1BDE817
:1053B0007040704770B50446002200BFD0B20B5C4D
:1053C00083B142F00100C0B20B5C5BB142F002005D
:1053D000C0B20B5C33B142F00300C0B20B5C0432CC
:1053E000002BEBD10A78002A08BF70BD4FF4FD7383
:1053F00058438030012303EB50054E1EE8B2D2B271
:105400002146FFF7BFFCB2780635002A06F10106F7
:10541000F4D170BDB0B584B00446007831381B2893
:1054200000F29D80DFE800F00E3A78829B9B9B9B08
:105430009B9B9B9B9B9B9B9B981A9B449B9B9B9B97
:105440009B9B9B5E6078002840F0898040F20000C2
:10545000C2F2000040F2011170E000BF6078002845
:1054600040F07D8040F2000041F20004C2F20000F2
:105470000021C4F201048170A4F580604FF4007132
:105480000122FCF7E1FA6CA0FBF732FD20464FF455
:10549000005104B0BDE8B040FCF7CEBA60780028F7
:1054A0005DD140F20000C2F200004FF4817145E08E
:1054B0006078002853D140F28000C2F20000C16938
:1054C0004CF6CD42CCF6CC42A1FB0223DA0802EB2B
:1054D000820300F12804A1EB430360A12046FAF700
:1054E00099FE0CE06078D0BB40F28000C2F2000070
:1054F000026A00F1280456A12046FAF78BFE2046E6
:10550000FBF78AF840F2D001C2F20001303182B2DA
:105510000846214681E000BF607800BB40F20000F1
:10552000C2F2000040F2031108E000BF6078B0B999
:1055300040F20000C2F200004FF4827140F2800499
:105540000180C2F2000401202070FCF783FAE060C1
:10555000FEF7C2FA64E000BF6078002850D043A193
:105560002046FBF707F948B301AD43A103AA02ABFC
:1055700020460095FAF78CFF03281CD103981728C2
:1055800019D802993B2916D8019A3B2A13D840F220
:105590008004C2F20004A0700120E17022716071E9
:1055A000FCF758FAA06141F20000C4F201004FF488
:1055B0000051FCF741FA04B0B0BD00BF40F2000456
:1055C000C2F2000440F2051040F280052080C2F2D1
:1055D000000500206870FCF73DFA28618020A0805B
:1055E000FCF738FA024641F20000C4F201004FF421
:1055F00000516A6104B0BDE8B040FCF71DBA00BFBD
:1056000040F20000C2F200000121817040F2D0009F
:10561000C2F2000030300BA10A226423FDF748FEDD
:1056200041F20000C4F201004FF4005104B0BDE8A3
:10563000B040FCF701BA00BF416C61726D204F466B
:10564000460D0A00416C61726D204F4E0D0A00003C
:105650004C696768743A2534750D0A0054656D709D
:105660003A2532752E253175430D0A00474A5132CD
:1056700030303530340000005425753A25753A2510
:1056800075000000704700002DE9F04381B0089CD0
:10569000984615460E468146FCF7DCF9201A00EBC9
:1056A0000804FCF7D7F940F21801C2F200010968BA
:1056B000C1F3CB3161430091D9F800108A683240C0
:1056C000921BB2FA82F2520995423DD0074618F178
:1056D000010031D0FCF7BEF9C01BA04238D20098BF
:1056E00000990028A1F101010091D9F80010896802
:1056F00008BF044601EA0600801BB0FA80F04009AA
:105700008542E7D120E000BF88683040801BB0FAB6
:1057100080F04009854217D088683040801BB0FA7D
:1057200080F0400985420FD088683040801BB0FA75
:1057300080F04009854207D088683040801BB0FA6D
:1057400080F040098542DFD1002001B0BDE8F08340
:10575000D9E900014268B1F5827F22F0E00242609F
:105760000BD1D9F80810B1F5004F02D0B1F5806F18
:1057700003D1016821F040010160D9F82810B1F58A
:10578000005F07D1016821F400510160016841F414
:1057900000510160012089F85100002089F8500073
:1057A000032001B0BDE8F08370470000FCF72EBB7A
:1057B00070470000406A0021C185C184FDF788B9A7
:1057C00081B090F84210222921D183680246B3F5B6
:1057D000805F09D152F8281F52F8183C002B63D083
:1057E00003685B680AE000BF52F8281F13B9036919
:1057F000002BF5D003685B6803F07F030B70116822
:1058000001311160C18D01390A04C18502D001B096
:10581000704700BF0168CA6822F02002CA60CA68E7
:1058200022F48072CA604A6922F001024A61202192
:1058300080F8421000214163026B012A3CD10163D0
:10584000016851E8031F026821F0100142E80313C8
:10585000DBB1016851E8031F026821F0100142E842
:10586000031393B1016851E8031F026821F010018E
:1058700042E803134BB1016851E8031F026821F0AD
:10588000100142E80313002BDAD101680A68D2063E
:1058900006D5002200920A6800924968009100999A
:1058A000818D01B0FDF712B9026852686FF35F2273
:1058B00021F8022B8162A5E701B0FDF7A7BC00002B
:1058C00040F20010C2F20000FDF704B9FEE700004C
:1058D00094B0FCF7A9FA0AAC201D2421FAF722FFA4
:1058E00002200A9001200E90102000250F902046E3
:1058F0000495CDE902551195FCF742FD20B1EFF377
:10590000108072B6FEE700BF0F20CDE9050505A89F
:105910000021CDE907550995FCF72CFC20B1EFF3E8
:10592000108072B6FEE700BF4FF00208002401A805
:10593000CDF804800394FCF79BFB28B1EFF31080B3
:1059400072B600BFFEE700BF41F21800CDE90C447B
:10595000CDE90A44C4F20200016840F6004A41F071
:10596000100101600168C4F2010A01F01001059103
:10597000059901680AF5806541F00401016001683C
:10598000002201F004010591059901684FF40057C8
:1059900041F00801016000684FF4005100F0080078
:1059A000059005982846FCF74FF850464FF40071D3
:1059B00001224FF00109FCF747F8AAF5806630464E
:1059C000102101224FF0100BFCF73EF8CDE90A79C7
:1059D0000AAF28463946CDE90C48FBF725FF4FF4BE
:1059E0000070CDE90A0950463946CDE90C48FBF76D
:1059F0001BFF30463946CDE90AB9CDE90C48FBF723
:105A000013FF40F2D005C2F200050AF530512846D6
:105A100040F8301F4FF416510C22C0E90114C0E9C0
:105A20000344C0E90524C461FDF70CFB20B1EFF38A
:105A3000108072B6FEE700BF40F24810AAF5384168
:105A4000C2F2000048F2A06200244FF48043C0F28A
:105A5000010280E81600C0E90343C0E90544C0E93B
:105A60000744FBF7FDFF28B1EFF3108072B600BFCB
:105A7000FEE700BF0AF5C0502C732C754FF460216F
:105A8000C5E90004AC6001242846E9612C61FBF7FC
:105A900077FB28B1EFF3108072B600BFFEE700BFBE
:105AA000022040F2D008CDE90A040720C2F2000823
:105AB0000C900AA94046FBF7BFFA28B1EFF310801B
:105AC00072B600BFFEE700BF40F29C100AF510510D
:105AD000C2F200004FF4827200244FF400731827C2
